:020000040800F2
:10000000780700204502000853280008252700082B
:1000100051280008291500086D280008000000007C
:100020000000000000000000000000005728000849
:100030002B1500080000000055280008592800086A
:100040005F0200085F0200085F0200085F0200080C
:100050005F0200085F0200085F0200085F020008FC
:100060005F0200085F0200085F0200085F020008EC
:100070005F0200085F0200085F0200085F020008DC
:100080005F0200085F0200081D1500085F020008FB
:100090005F0200085F0200085F0200085F020008BC
:1000A0005F0200085F0200085F0200085F020008AC
:1000B0005F0200085F0200085F0200085F0200089C
:1000C0005F0200085F0200085F0200085F0200088C
:1000D0005F020008612800085F0200085F02000854
:1000E0005F0200085F0200085F0200085F0200086C
:1000F0005F0200085F0200085F0200085F0200085C
:100100005F0200085F0200085F0200085F0200084B
:100110005F0200085F0200085F0200085F0200083B
:100120005F0200085F0200085F0200085F0200082B
:100130005F0200085F0200085F0200085F0200081B
:100140005F0200085F0200085F0200085F0200080B
:100150005F0200085F0200085F0200085F020008FB
:100160005F0200085F0200085F0200085F020008EB
:100170005F0200085F0200085F0200080000000044
:100180005F02000800F002F800F04CF80AA090E8C6
:10019000000C82448344AAF10107DA4501D100F042
:1001A00041F8AFF2090EBAE80F0013F0010F18BFC3
:1001B000FB1A43F001031847343A0000543A000098
:1001C000103A24BF78C878C1FAD8520724BF30C883
:1001D00030C144BF04680C60704700000023002455
:1001E00000250026103A28BF78C1FBD8520728BF47
:1001F00030C148BF0B607047662903F09E846429B4
:1002000000F00081002070471FB500F049FC040099
:100210000020002102F076FEE06000F0A9F91FBD89
:1002200010B510BD00F03CFD1146FFF7EDFF02F0E8
:10023000E5FD00F05AFD03B4FFF7F2FF03BC00F048
:100240009DFD00000948804709480047FEE7FEE79A
:10025000FEE7FEE7FEE7FEE7FEE7FEE7FEE7FEE776
:1002600004480549054A064B704700005D28000810
:10027000850100087801002078070020780300201D
:100280007803002053EA020C00F069802DE9F04B5E
:100290004FF00006002B1FBFB3FA83F503FA05F4F5
:1002A00024FA05F65E4012BF1643B2FA82F502FA4E
:1002B00005F4C5F120051EBF22FA05FC44EA0C0432
:1002C000203556EA044C4FEA144418BF641C4FF022
:1002D00000084FF00009904271EB030C39D300295C
:1002E00019BFB1FA81F701FA07F6B0FA80F700FA00
:1002F00007F6C7F120071EBF20FA07FC46EA0C06E6
:100300002037B6FBF4FCA7EB0507103F07F01F0BE7
:10031000CBF120060CFA0BFB2CFA06F644BFB346D1
:100320000026202FA4BF5E464FF0000B5BEA060CB0
:1003300008BF4FF0010B19EB0B09ABFB027C48EB3C
:100340000608C01B06FB02CC0BFB03CC71EB0C01B7
:10035000C1E70B46024641464846BDE8F08B13B55F
:100360004FF000004FF00001AFF30080BDE81C40EB
:10037000704700000FB41CB5074B06AA7B446946C2
:100380000090059800F073FB0020694600F082FBA6
:100390001CBC5DF814FB0000150700002DE9F041BE
:1003A0000E460446002020622046E168884730B3AC
:1003B000252805D0D4E901219047206A401CF2E7A6
:1003C000E168204600278847050018D0A5F14100C4
:1003D000192802D820354FF40067324629462046B6
:1003E0002760FFF709FF40B1012804D0F61D26F071
:1003F00007060836D8E7361DD6E72846DAE7206A2A
:10040000BDE8F0812DE9F041064600241068752909
:10041000314616A510D0AFF30080002802DA404222
:1004200013A507E031688A0701D512A502E0490744
:1004300004D511A5012401E0AFF3008000210A22B8
:1004400006F1240709E0B0FBF2FCB0FBF2F302FB7B
:100450001C00303078541846491C0028F3D123463C
:100460002A463046BDE8F04100F094B80000000094
:100470002D0000002B0000002000000040EA0103D6
:10048000024630B59B0710D14FF0013400E008C29E
:1004900008C91D1B9D4315EAC41FF8D013F0FF01C6
:1004A00002F8011B0DD01B0AF8E711F8013B002BE5
:1004B00002F8013B05D011F8013B002B02F8013B8B
:1004C000F3D130BD10B5431C02E010F8011B71B12F
:1004D0008107FAD14FF0013202C88C1A8C4314EA1A
:1004E000C211F9D0C01A0A0603D0C01E10BDC01A2E
:1004F00010BD0A0401D0801E10BD0902FCD0401EB0
:1005000010BD421E12F8013F002BFBD111F8013B38
:10051000002B02F8013BF9D170474FF0000200B503
:10052000134694469646203922BFA0E80C50A0E816
:100530000C50B1F12001BFF4F7AF090728BFA0E8C4
:100540000C5048BF0CC05DF804EB890028BF40F890
:10055000042B08BF704748BF20F8022B11F0804FD2
:1005600018BF00F8012B70477047704770470000B4
:1005700070B5064C7C44064D7D4403E02068204461
:100580008047241DAC42F9D170BD0000B036000098
:10059000B03600002DE9F0470D46994692460446D4
:1005A00000F124080168880604D5E06921F01001F3
:1005B000216000E00120A84201DD471B00E0002788
:1005C000A1697A1902EB0900081AA0612078C00617
:1005D00002D42046AFF30080002608E0D4E90121D0
:1005E0001AF806009047206A401C761C20624E458F
:1005F000F4DB2078C0060AD52046AFF3008006E081
:10060000D4E9012130209047206A401C2062381E26
:10061000A7F10107F4DC07E0D4E9012118F805008F
:100620009047206A401C2062281EA5F10105F3DCDA
:100630002046AFF300802078000602D50220BDE8F6
:10064000F0870120FBE770472DE9FF4F0C461E465F
:100650004FF0FF378BB0D2E90001DDF860800A90DF
:100660008A46C1F30A5505B93D46002108464FF0B8
:100670000000BAF1000F00F4400005DA00EB800042
:100680004FF4400101EA50004FEA9059B9F1010FCF
:1006900000DDB9460A9850EA4A000ED044F61050E0
:1006A000A5F2FF3545432F14B8F1000F1ED0754257
:1006B000291E1EDDC9F100021CE0B8F1010F4FF048
:1006C000000001D0302103E0F24305E02154401C3A
:1006D000B042FBDB30460022002121540B99C1F8C7
:1006E0000880C1E900200FB0BDE8F08FBD1B6D1C74
:1006F000DEE74A4600DA694206A800F05BFA06AB7C
:1007000093E8070003AB83E8070050460A9900F01E
:100710003CFB8DE80700A0F500501F3800900398BF
:10072000002D0ADD42F21F014A460844002303A9B6
:100730000390684600F0A5FD09E0A0F500504A4688
:100740001F38002303A90390684600F0AFFD8DE831
:1007500007000004000C03D04FF0FF30410800E018
:100760001046B8F1000F03D00022009215461EE09B
:10077000751E05D400F098F9303262556D1EF9D51A
:10078000B3460122084302D000227F1C04E02078F7
:10079000302801D100227F1E002A099784D01DE055
:1007A000112D07DA00F080F9303262556D1C50EAE5
:1007B0000102F5D1084302D00098C8B10EE0002133
:1007C000681E05E0235C625C63542254401E491C91
:1007D0008142F7DBAB46A81B401E0990002004F8BD
:1007E0000B000B98099AC0F80880C0E9002B7AE743
:1007F00011264FF0000857E72DE9F04F88460446D0
:10080000D21D22F0070191B0D1E90001CDE90A0122
:1008100002F0D5FA02460B98C00F01D02D2007E058
:100820002068810701D52B2002E0202101EAC000C9
:10083000032A099001D0072A05DB034641462046DA
:1008400000F078F90BE12078800601D5E06900E03E
:100850000620B8F1650F814606D0B8F1660F18D0B2
:10086000B8F1670F70D131E00020B9F1110F00909D
:1008700001DB112301E009F101030AAA01A90CA877
:10088000FFF7E2FEDDE90C70002609F10105834661
:1008900047E001204B4600904FF000470AAA01A90B
:1008A0000CA8FFF7D1FEDDE90DB00C995D460026DE
:1008B00010B909F101000D18B9EB050003D4C0F11E
:1008C000FF3609F10105A5EB09002BE0B9F1010F95
:1008D00001DA4FF001090020B9F1110F00904846EC
:1008E00001DD112300E003460AAA01A90CA8FFF7C5
:1008F000ABFEDDE90C704D460026834620780007EC
:100900000AD4AB4500DA5D4601A8012D04DD41198A
:1009100011F8011C302907D04F4502DA17F1040FF6
:1009200004DA012082460FE06D1EEEE7002F02DCA4
:10093000ED1B3E4403E0781CA84200DD7D1CB81B83
:1009400000F1010A4FF000472078000703D4AA45C0
:1009500001DB4FF0FF3A0021B7F1004F0DF14308E2
:100960008DF8431024D002202B23002F01DA7F4280
:100970002D230A21021EA0F1010000DC5FB197FBCC
:10098000F1FC97FBF1F201FB1C7C17460CF1300CDB
:1009900008F801CDEEE7A8F10100037021880905F0
:1009A00001D5452100E06521A0F1010800F8011CF6
:1009B00009980FA9A1EB0807FF1D00B101204119FB
:1009C00001EBEA70A1693844081A401EA061207842
:1009D000C00602D42046AFF30080099828B1D4E9BC
:1009E00001219047206A401C20622078C00622D551
:1009F0002046AFF300801EE0002E04DBB34502DD8D
:100A000001A8805D00E03020D4E901219047206AF0
:100A1000401C2062761CAAF101005FEA000A0AD19C
:100A200000F03EF8C0680168405CD4E901219047BD
:100A3000206A401C2062281EA5F10105DCDC07E0CD
:100A4000D4E9012118F8010B9047206A401C20626C
:100A5000381EA7F10107F3DC2046AFF30080032026
:100A600011B041E601694A1C02610878704700B57F
:100A70008FB0CDE901310021059105497944CDE9D7
:100A8000031011466846FFF789FC0FB000BD000057
:100A9000E5FFFFFF0A6802F8010B0A6070470000DB
:100AA000004870473801002030B5B0F10A024FEA23
:100AB000900E71F100034EEA817EB0EB0E0061EB07
:100AC00091014FEA101E4EEA017E10EB0E0041EB41
:100AD00011114FEA102E4EEA016E10EB0E0041EBA1
:100AE00011214FEA104E4EEA014E10EB0E0041EB81
:100AF0001141401841F100014FEAD00040EA417035
:100B00004FEAD10110EB80054FEA810444EA90746A
:100B100044EB01046D1944EB0404521BA3414FF054
:100B2000000348BF0A3200D530BD401C41F100012E
:100B300030BD00002DE9F0411F4604460326016840
:100B4000072A01F4006004DB08B116A505E016A52C
:100B500003E008B115A500E015A521F01000206004
:100B6000A069C01EA0610FB1401EA0612046AFF376
:100B700000804FB1D4E9012138469047206A401CDB
:100B80002062C01C206206E0206AFAE7D4E9012155
:100B900015F8010B9047761EF8D22046AFF300807F
:100BA000BDE8F0814E414E006E616E00494E460038
:100BB000696E66002DE9F047814616468AB03548D1
:100BC00078440DC88DE80D0032487844801C03AC91
:100BD0000DC884E80D0041F69B300844372190FB96
:100BE000F1F290FBF1F5A5F1800501FB12041B3C2D
:100BF00002D56442012000E00020DFF898A0804682
:100C00000027FA44AAF1BE0A0EE0E0070AD03246F5
:100C1000684607EB470101230AEB810100F046FB20
:100C20008DE8070064107F1C002CEED1194F7F4423
:100C3000AE3F19E0E80715D007EB04100DF1180AD4
:100C400090E80E008AE80E00C068F04201D19819C1
:100C500008903246012306A903A800F027FB03AB46
:100C600083E807006D10641C002DE3D14FF00103F1
:100C700032466946B8F1000F03A802D000F001FB2C
:100C800001E000F013FBC9E90001C9F808200AB02F
:100C9000BDE8F087103000000048704718010020C0
:100CA0007546FFF7F9FFAE4605006946534620F04A
:100CB0000700854618B020B5FFF7D2FABDE82040FE
:100CC0004FF000064FF000074FF000084FF0000B08
:100CD00021F00701AC46ACE8C009ACE8C009ACE8BB
:100CE000C009ACE8C0098D46704710B50446AFF3A3
:100CF00000802046BDE81040FFF79DBA4FF0013C50
:100D000050F8042B51F8043B9A4221D1A2EB0C037A
:100D1000934313EACC1317D150F8042B51F8043B3A
:100D20009A4215D1A2EB0C03934313EACC130BD1D7
:100D300050F8042B51F8043B9A4209D1A2EB0C0362
:100D4000934313EACC13DBD04FF00000704700BF91
:100D5000D01A01BAB1FA81F101F0180122FA01F0BA
:100D6000CB40C1F12001DBB2C0B2C01A2CFA01F3B2
:100D7000D11A914311EAC311E6D1704701491820F5
:100D8000ABBEFEE72600020070475FEA400C08BFDA
:100D900091F0000F4FEA8C234FEAC12243EA5151F0
:100DA0004FEA1C5018BF00F5F0404FEA300018BF62
:100DB00041F000415FEA6C5C00F02980BCF1FF3F2C
:100DC00008BF40F080407047130C06BF12044FF07C
:100DD000100C4FF0000C130E04BF12020CF1080CA3
:100DE000130F04BF12010CF1040C930F04BF920007
:100DF0000CF1020CD30F04BF52000CF1010C114690
:100E00004FF00002A0F11F00A0EB0C00704711F0A2
:100E1000004F08BF704731F000413FF4D5AF0B0CD5
:100E200006BF09044FF0100C4FF0000C0B0E04BF6E
:100E300009020CF1080C0B0F04BF09010CF1040CA2
:100E40008B0F04BF89000CF1020CCB0F04BF4900CB
:100E50000CF1010CCCF12003A0EB0C0022FA03F3FF
:100E600002FA0CF241EA030100F10100704720F0A0
:100E70007F4C80EA030023F07F47ACEB070303F5C8
:100E80007C5300F0004003F1FF032DE980494FEA55
:100E9000154B09B44FEA144325EA0B4E24EA0348E4
:100EA0000FF2042606EB132749083E785FEA320268
:100EB00003FB0667C7F5000707FB06F64FEA543742
:100EC0004FEAD64606F1020607FB066CCCF1005C41
:100ED0004FEA1C472CEA074C07FB06F40CFB06F50F
:100EE00004EB15464FEA961634BF00204FF0004041
:100EF0004FEAD13706FB07FC4FEA1C4C0CFB0BF703
:100F0000D21B03FB0CF761EB07010CFB0EF7B0EBF8
:100F1000074072EB17420CFB08F734BFA2EB074205
:100F2000B2EB074261EB17414FEA0C444FEA9107DD
:100F300006FB07FC4FEA1C4C0CFB0BF7B0EBC74061
:100F400072EB573203FB0CF734BFA2EBC742B2EB94
:100F5000C74261EB57310CFB0EF7B0EBC70072EBE9
:100F600057720CFB08F734BFA2EBC702B2EBC70203
:100F700061EB5771039F4FEA816141EA921104EBE3
:100F8000CC044FEAD1374FEA826206FB07FC42EA03
:100F900090124FEA80604FEA1C4C0CFB0BF7D21BFF
:100FA00003FB0CF761EB07010CFB0EF7B0EB0740FE
:100FB00072EB17420CFB08F734BFA2EB0742B2EB0F
:100FC000074261EB17414FEA8C554FEA910704EB5A
:100FD0009C2406FB07FC4FEA1C4C0CFB0BF7B0EB08
:100FE000C74072EB573203FB0CF734BFA2EBC7428A
:100FF000B2EBC74261EB57310CFB0EF7B0EBC70009
:1010000072EB57720CFB08F734BFA2EBC702B2EBCE
:10101000C70261EB577115EB4C254FEA816141EA3C
:1010200092114FEA82624FEAD13742EA901206FBF0
:1010300007FC44F100044FEA80604FEA1C4C0CFBB3
:101040000BF7D21B03FB0CF761EB07010CFB0EF750
:10105000B0EB074072EB17420CFB08F734BFA2EB72
:101060000742B2EB074261EB174115EB1C154FEA43
:10107000813141EA92414FEA823242EA90424FEA9C
:1010800080304FEA0C7644F1000448EA03434EEA0C
:101090000B484FF0000EB2EB080C71EB030724BFB6
:1010A000624639464EEB0E0E4FF0000B00185241CF
:1010B00049414BEB0B0BB2EB080C71EB03077BF1D7
:1010C000000B24BF624639464EEB0E0E4FF0000B6C
:1010D0000018524149414BEB0B0BB2EB080C71EB82
:1010E00003077BF1000B24BF624639464EEB0E0E20
:1010F00051EA020718BF46F0010616EB0E7655F1CD
:10110000000254F1000103D5BDE88901BDE8008863
:10111000BDE88901BDE80048B619524141EB010123
:10112000A3F10103704780807F7E7D7C7B7A797894
:10113000777676757473727171706F6E6E6D6C6C9C
:101140006B6A6A696868676666656464636362613E
:101150006160605F5F5E5E5D5D5C5C5B5B5A5A59BF
:10116000595858575756565555555454535352522B
:101170005251515050504F4F4F4E4E4D4D4D4C4C83
:101180004C4B4B4B4A4A4A494949484848474747CC
:101190004746464645454544444444434343434209
:1011A000424242414141002B9C4630D477002BD033
:1011B0001CB54FEA370703B44FF010004FF0100191
:1011C000BAF1000F06D0BCF1000FDCBF40F0080000
:1011D00040F008014FF000000FBCBDE810400BF1DB
:1011E000010BBBF1010F08BF5FEA170722BF12F125
:1011F000010211F101014FF0004143F1000300F041
:10120000004043EA00007047F9D35708D0E746EAA8
:10121000064613F1400F4FEA16461FDD13F1200F6B
:10122000DFBF16430A46002120335B42BED0C3F124
:10123000200746EA064602FA07F74FEA164646EA4C
:101240000706C3F1200722FA03F201FA07F721FA91
:1012500003F14FF0000342EA0702A7E746EA02065D
:1012600046EA06464FEA164646EA0106BCBF46EA8B
:101270000646360C4FF000034FF000024FF000011D
:1012800094E72DE9804C9A46934670B491E8380073
:1012900007C831EA400C48BF34EA430C03D5FFF7D6
:1012A000E6FDFFF780FFF0BCBDE8008C2DE9804C27
:1012B0009A46934670B491E8380007C810F0804F02
:1012C00008BF13F0804F03D100F005F8FFF76BFF64
:1012D000F0BCBDE8008C20F07F4780EA030023F0DB
:1012E0007F4C07EB0C03A3F57C5300F00040A3F107
:1012F000FE0392F0000F00F0B38095F0000F00F0B5
:1013000077802DE901494FEA11404FEA144621EA5E
:10131000004800FB06FC24EA064708FB06F607FB2C
:1013200008F800FB07F718EB06484CEB164C4FEAA1
:10133000124B18EB07484FEA15464CEB174022EAD0
:101340000B4E0BFB06FC25EA06470EFB06F607FBD9
:101350000EFE0BFB07F71EEB064E4CEB164C4FF048
:1013600000061EEB074E4CEB174B18EB0B0840F139
:10137000000018EB0E0B58EB000840F100008F1A2C
:101380004FF000013CBFC943661B14BFB5EB040C12
:1013900000213CBFC943F61B4FEA17444EEA8E0EAC
:1013A00027EA04454FEA1C4704FB07622CEA074C76
:1013B00005FB07F70CFB05F604FB0CFC16EB0746D8
:1013C00042EB174216EB0C4642EB1C421BEB0606A7
:1013D00058EB0202414146EA9E0601D5BDE801896B
:1013E000B619524141EB0101A3F10103BDE80189A6
:1013F0004FEA14454FEA114724EA054621EA074C13
:1014000005FB07F406FB07F70CFB06F105FB0CFCDC
:1014100011EB074144EB17444FEA124711EB0C4123
:1014200044EB1C4422EA074C05FB07F206FB07F7D6
:101430000CFB06F605FB0CFC16EB074642EB1742CD
:1014400016EB0C4642EB1C456A1854F1000148BFEC
:101450007047B619524141EB0101A3F101037047F6
:1014600095F0000F37D04FEA11424FEA144721EAB6
:10147000024624EA074C02FB07F106FB07F70CFBC8
:1014800006F402FB0CFC14EB074441EB17414FEA56
:10149000154714EB0C4441EB1C4125EA074C02FBB9
:1014A00007F506FB07F70CFB06F602FB0CFC16EB38
:1014B000074645EB174516EB0C4645EB1C42121947
:1014C00051F1000148BF7047B619524141EB01018B
:1014D000A3F1010370474FEA14454FEA114724EA8C
:1014E000054621EA074C05FB07F106FB07F70CFB55
:1014F00006F24FF0000605FB0CFC12EB074241EB35
:10150000174112EB0C4251EB1C4148BF7047921837
:1015100041EB0101A3F1010370470000014800F015
:10152000C5B800008C000020FEE7704772B6FEE7E9
:101530007047000078B50024009490F83C20012A00
:1015400019D0012280F83C200A6807230568092A7F
:1015500013D9EE680A3A02EB420293409E43EE60D2
:101560000B788A680A3B03EB43039A400368DD6803
:101570002A43DA6010E0022078BD2E6902EB4202B5
:1015800093409E432E610A788B6802EB420293409F
:10159000026815692B4313614A681F23072A13D277
:1015A00005686E6B521E02EB820293409E436E638F
:1015B0000B790A885B1E92B203EB83039A4003689F
:1015C0005D6B2A435A6327E005680D2A12D22E6B01
:1015D000D21F02EB820293409E432E630B790A884E
:1015E000DB1F92B203EB83039A4003681D6B2A430F
:1015F0001A6311E0EE6A0D3A02EB820293409E43B9
:10160000EE620B790A880D3B92B203EB83039A409A
:101610000368DD6A2A43DA62174A0368934208D1F5
:101620000B68122B05D1D2F8043343F48003C2F8BF
:101630000433036893421AD10B68102B01D0112B8D
:1016400015D1D2F8043343F40003C2F80433096817
:1016500010290CD109490A4A0968B1FBF2F101EBE2
:101660008101490000E0491E00910029FBD180F86A
:101670003C40002078BD00000020014030000020E8
:1016800040420F0010B5054900680968884204D13E
:10169000024800F008F80249086110BD8C000020E3
:1016A0000000002070470068C06C704770B50446A9
:1016B000006801684268C1F34001C2F3401251B3AF
:1016C0004AB3216CC90603D4216C41F40071216432
:1016D000816811F0405F17D1217EA9B9C16A11F468
:1016E000700F02D0816849050ED4416821F02001B5
:1016F0004160206C20F480702064206CC00403D40E
:10170000206C40F0010020642046FFF7BBFF2168F9
:101710006FF012000860206801684268C1F3800120
:10172000C2F3C01289B382B3216CC90603D4216C01
:1017300041F400512164816811F4401F1ED1816B76
:1017400011F4401F02D08168490517D4416849054A
:1017500014D4816811F0405F10D1217E71B94168C5
:1017600021F080014160206C20F480502064206CC6
:10177000C00503D4206C40F0010020642046FFF730
:10178000D7FE21686FF00C0008602068016842688D
:1017900011F0010FC2F380120ED06AB10068C007C9
:1017A0000AD0206C40F480302064204600F046F8D7
:1017B00021686FF001000860206801684268C1F389
:1017C0004011C2F3806200290DD0002A0BD0616C59
:1017D00041F0020161646FF0200505602046FFF7CB
:1017E00061FF2068056070BD70B504004FF0000512
:1017F00003D0206C002610B107E0012070BD204608
:1018000000F01EF8666484F83C60206CC00610D4BA
:10181000206C20F4885040F002002064204601F043
:10182000E3F86664206C20F0020040F001002064C0
:1018300000E0012584F83C60284670BD7047000038
:1018400010B586B0044614216846FEF766FE1549B9
:101850002068884224D114480021026842F4807232
:101860000260006800F4807005900F481438026828
:1018700042F001020260006800F0010005900120C2
:1018800000900320CDE901016946084800F0D8F82E
:1018900000220221122000F08FFA122000F07EFABE
:1018A00006B010BD00200140443802400000024054
:1018B00018B50021009190F83C20012A07D00122A0
:1018C00080F83C2002689368DB0702D011E0022018
:1018D00018BD936843F001039360274A274B1268B1
:1018E000B2FBF3F202EB420200E0521E0092002A29
:1018F000FBD102689368DB0733D0036C40F20164CC
:10190000A34343F48073036453685B0505D5036CFC
:1019100023F4005343F480530364036CDB0404D5C5
:10192000436C23F00603436400E0416480F83C10FC
:101930006FF02201116001684A68114B1A434A6036
:101940001049D1F804230068D20601D0884210D192
:10195000816811F0405F0CD1816841F08041816065
:1019600007E0016C41F010010164416C41F001019C
:101970004164002018BD00003000002040420F00EC
:1019800020000004002001402DE9F0410446876D4D
:1019900000F0A4F9064694F835000025022806D088
:1019A0008020606584F834500120BDE8F081206813
:1019B000016821F0160101602068416921F0800171
:1019C0004161206C08B9A06C20B12068016821F049
:1019D000080101602068016821F0010101600CE04C
:1019E00000F07CF9801B052807D9202060650320C2
:1019F00084F8350084F83450D7E720680068C007C1
:101A0000EED194F85C103F208840B860012084F843
:101A1000350084F834500020C7E790F835100229CB
:101A200003D08021416501207047052180F83510E1
:101A30000068016821F0010101600020704700008A
:101A40002DE9F04FDFF85092002309F1040A012636
:101A500003250AF1040B85B00F270BF1040E12E1E8
:101A6000224606FA03F422407ED091F804C00CF01E
:101A7000030CBCF1010F02D0BCF1020F26D1D0F84B
:101A80000880CDF800804FEA430805FA08FCCDF83D
:101A90001080DDF8008028EA0C08CDF80080D1F82D
:101AA0000CC0DDF810800CFA08FCDDF800804CEA70
:101AB000080CC0F808C0D0F804C02CEA040C0C795B
:101AC000C4F300149C4044EA0C0444600C79E443E1
:101AD000A40712D0C4684FEA430CCDF808C005FA39
:101AE0000CFC24EA0C04D1F80880DDF808C008FAE0
:101AF0000CF848EA0408C0F80C800C7904F00304E0
:101B0000022C16D1DC0800EB840CCDF808C0DCF800
:101B100020C05C074FEAD46807FA08F42CEA040CEA
:101B20000C6904FA08F444EA0C04DDF808C0CCF8A7
:101B3000204004684FEA430805FA08FC24EA0C0434
:101B400091F804C00CF0030C0CFA08FC4CEA040CED
:101B5000C0F800C04C6814F4403F05D04F4CD4F896
:101B600000C04CF4804C00E08CE0C4F800C0246855
:101B700023F0030C04F480440094494C6444029420
:101B8000D4F808484FEA837C4FEA1C7807FA08FC2F
:101B900024EA0C04DFF80CC1604502D14FF0000CC0
:101BA00039E0DFF804C1604502D14FF0010C32E0AA
:101BB000DFF8F8C0604502D14FF0020C2BE0DFF8EF
:101BC000F0C0604502D14FF0030C24E0DFF8E4C020
:101BD000604502D14FF0040C1DE0DFF8DCC0604529
:101BE00002D14FF0050C16E0DFF8D0C0604502D1FD
:101BF0004FF0060C0FE0DFF8C8C0604502D14FF08F
:101C0000070C08E0DFF8BCC0604502D14FF0080CBB
:101C100001E04FF0090C0CFA08FC4CEA040C029CA1
:101C2000C4F808C8D9F80040CC46D1F804809443E1
:101C30005FEAC83800D51443CCF80040DAF8004019
:101C4000D446D1F8048094435FEA883800D5144321
:101C5000CCF80040DBF80040DC46D1F80480944327
:101C60005FEAC82800D51443CCF80040DEF80040F5
:101C7000F446D1F8048094435FEA882800D51443E1
:101C8000CCF800405B1C0A681446DA407FF4E8AEEA
:101C900005B0BDE8F08F0000003C01404438024030
:101CA00000300140000002400004024000080240F1
:101CB000000C0240001002400014024000180240D4
:101CC000001C0240002002400069084000D00120B2
:101CD00070470AB1816170470904FBE701488068D9
:101CE00070470000240000200248816802781144F7
:101CF00081607047240000200B4810B5016841F452
:101D000000710160016841F480610160016841F483
:101D100080710160032000F06FF80F2000F006F8DA
:101D200000F024F8002010BD003C024070B50D4DBD
:101D300004464FF47A712878B1FBF0F00A4909683B
:101D4000B1FBF0F000F004FB48B9102C07D20022E0
:101D50002146501E00F030F800206C6070BD01205C
:101D600070BD000024000020300000200A4808B5A3
:101D7000016841F480410160006800F480400090F7
:101D80000548001F016841F080510160006800F0C3
:101D90008050009008BD000044380240002809DB54
:101DA00000F01F02012191404009800000F1E02075
:101DB000C0F8001170470000F0B40E4B1B680C46D1
:101DC000C3F30223C3F10705042D00D90425191D0F
:101DD000072901D2002300E0DB1E012606FA05F1E7
:101DE000491E214099409E40761E16403143F0BC6A
:101DF00000F0D5BF0CED00E0064900F007020868CE
:101E00004FF6FF03184040EA0220034A10430860DF
:101E1000704700000CED00E00000FA052DE9F047E6
:101E20000E46050063D0DFF81C81D8F80000F7B239
:101E300000F00F00B04207D288F80070D8F8000018
:101E400000F00F00B04252D128683F4C810712D5F4
:101E5000400703D5206840F4E05020602878000750
:101E600003D5206840F4604020602068A96820F015
:101E7000F000084320602878C0072BD032496868FA
:101E80000839012810D00968022810D089070029D4
:101E90002DDA216821F0030101432160FFF71EFFC5
:101EA000814641F2883A0EE009688903EFE789012B
:101EB000EDE700BFFFF712FFA0EB0901514502D982
:101EC0000320BDE8F0872068696800F00C00B0EBE3
:101ED000810FEFD1D8F80010404601F00F01B14258
:101EE00007D90770006800F00F00B04201D0012050
:101EF000E7E72878400705D52068E96820F4E05036
:101F0000084320602878000706D52068296920F456
:101F1000604040EAC100206000F04EF82168F022E5
:101F200092FAA2F201F0F001B2FA82F2D140074A2D
:101F3000515CC8400649086006480068FFF7F6FE95
:101F40000020BEE7003C0240083802403E3B00084B
:101F5000300000202800002008480949006809686E
:101F60004FF4E05292FAA2F201F4E051B2FA82F296
:101F7000D140044A515CC840704700003000002046
:101F8000083802404E3B00080848094900680968C3
:101F90004FF4604292FAA2F201F46041B2FA82F286
:101FA000D140044A515CC840704700003000002016
:101FB000083802404E3B0008154810B5006810F084
:101FC0000C02144813D04110042A0FD0082A0ED155
:101FD0000F4C241F2268236802F03F025B0207D5E2
:101FE0002068C0F38810A0FB010106E0084610BD80
:101FF0002168C1F38811A1FB00010023FEF742F91B
:102000002168C1F30141491C4900B0FBF1F010BD4A
:10201000083802400024F4002DE9F84F04007BD07A
:10202000DFF814B32078ABF10406C007A6F104056D
:1020300036D0DBF800105846C1F38101012907D0E2
:102040000068C0F38100022809D13068400206D53B
:102050002868800324D560680028E0D020E0B649D5
:102060002079891F0870606868B1FFF737FE07465E
:1020700005E000BFFFF732FEC01B642876D8286851
:102080008003F7D50CE0FFF729FE074605E000BF07
:10209000FFF724FEC01B6428F0D828688003F7D41B
:1020A0002078DFF8988280074FF0000944D5DBF8EC
:1020B0000010584611F00C0F4FF0F80A07D00068D6
:1020C000C0F38100022809D13068400206D4286894
:1020D000800715D5E06801281ED111E0E068E0B165
:1020E0000120C8F80000FFF7F9FD074605E000BF32
:1020F000FFF7F4FDC01B0228C0D828688007F7D579
:1021000028689AFAAAF22169B2FA82F220F0F8005D
:102110009140084328600FE00AE1C8F80090FFF7FB
:10212000DDFD074605E000BFFFF7D8FDC01B022814
:102130001CD828688007F7D42078000727D5DFF857
:10214000F8A17F4861690AF16C0A81B1012101603F
:10215000FFF7C4FD074604E0FFF7C0FDC01B0228DF
:1021600004D8DAF800008007F6D510E082E0C0F865
:102170000090FFF7B3FD074605E000BFFFF7AEFD97
:10218000C01B022876D8DAF800008007F6D4207841
:1021900040075FD5DFF8A0A100270AF1380ADAF876
:1021A0000000C0000BD4DAF8001041F08051CAF8EA
:1021B0000010DAF80000012700F08050009061481C
:1021C000016841F4807101600168C90512D4016899
:1021D00041F480710160FFF781FD009006E000BFCF
:1021E000FFF77CFD0099401A02287ED85548006808
:1021F000C005F5D55049207A68310870A06888B1CB
:10220000FFF76CFD009007E0FFF768FD0099411AA9
:1022100041F28830814268D84748683000688007BA
:10222000F2D510E0FFF75AFD009007E0FFF756FDEA
:102230000099411A41F28830814256D83E486830B0
:1022400000688007F2D42FB1DAF8001021F0805135
:10225000CAF80010A069B8B3DBF80010C1F381011F
:10226000022949D00228C8F8609004D0FFF736FD53
:1022700004463DE039E0FFF731FD074605E000BFC9
:10228000FFF72CFDC01B64282FD828688001F7D4E5
:10229000D4E907010843616A94F82C20890141EAD6
:1022A00002610843A16A284A490802EB0141084338
:1022B0003168264A1140084330600120C8F86000A8
:1022C000FFF70CFD044606E034E000BFFFF706FD13
:1022D000001B642809D828688001F7D52AE000BFD0
:1022E000FFF7FCFC001B642802D90320BDE8F88F2F
:1022F00028688001F4D41DE00128F7D03068E26935
:1023000000F48001914213D1226A00F03F01914212
:102310000ED1616AC0F38812914209D1A26A00F419
:102320004031914204D1E16A00F07060884201D0EE
:102330000120DBE70020D9E70838024000004742CF
:10234000800E4742007000400000FFFF0080BCF09C
:1023500010B5401EB0F1807F01D3012010BD4FF0B9
:10236000E02460610F21601700F019FD0020A061DA
:1023700007202061002010BD70477047F8B5026843
:1023800004461068D168536910F00F0F4FF0000534
:1023900053D003F0010601F4907737435FD0C207B2
:1023A00005D0CA0503D5226C42F00102226442071F
:1023B00005D5DA0703D0226C42F0020222648207BC
:1023C00005D5DA0703D0226C42F00402226402072A
:1023D00007D501F02002324303D0226C42F00802FC
:1023E0002264226C002A34D0800604D5880602D5E7
:1023F000204600F027FC20684069216CC0F3801063
:10240000090700D430B3204600F077FC206841690A
:1024100049061BD5416921F040014161A06BA8B17B
:1024200059490165A06BFFF7F8FA002811D0A06B9D
:10243000016D01B0BDE8F040084783060FD58B065B
:102440000DD52046BDE8F84000F0FCBB2046FFF764
:1024500094FFF8BD2046FFF790FF2564F8BD266B7A
:102460002023012E53D1C60651D5CE064FD5106874
:1024700050680090506940062BD5A16B08684068F1
:102480000004000CEAD0A68D8642E7D9E085C86931
:10249000B0F5807F18D0D06820F48070D0602068BC
:1024A000416921F0010141612068416921F0400149
:1024B000416184F83E3025632068C16821F0100135
:1024C000C160A06BFFF760FAA08DE18D401A81B268
:1024D00019E0A08DE18D401A81B2E08D0028BDD0B9
:1024E0000029BBD0D06820F49070D0602068426989
:1024F00022F00102426184F83E3025632068C26800
:1025000022F01002C2602046FFF736FFF8BD050634
:102510002BD50D0629D594F83D002128F6D1A068C9
:10252000B0F5805F01D12069B0B1206A411C216201
:10253000216800784860E08C401E0004000CE084B4
:10254000E4D12068C16821F08001C1602068C168C1
:1025500041F04001C160F8BD206A0088C0F3080066
:102560005060206A801C2062E5E74006F3D54806EB
:10257000F1D5D168204621F04001D16084F83D308A
:1025800000F0CFF8F8BD00002B2D000870B5040056
:1025900004D094F83D00002510B106E0012070BD84
:1025A00084F83C50204600F023F8242084F83D00B5
:1025B0002068C16821F40051C160204600F0B0FAE3
:1025C0002068016921F4904101612068416921F08E
:1025D0002A0141612068C16841F40051C16025644D
:1025E000202084F83D0084F83E00002070BD0000EB
:1025F00010B586B0044614216846FDF78EFF1849D1
:102600002068884229D117480021026842F0100250
:102610000260006800F0100005901248143802684B
:1026200042F001020260006800F0010005904FF4E2
:10263000C06000900220CDE9010103200390072033
:10264000049069460848FFF7FBF900220121252084
:10265000FFF7B2FB2520FFF7A1FB06B010BD00007D
:102660000010014044380240000002407047000062
:102670002DE9F843044690F83D001F4616460D46E6
:1026800020284CD1C5B1BEB194F83C00012846D0F9
:10269000012084F83C004FF00008C4F8408021205D
:1026A00084F83D00FFF71AFBA6848146E684A06803
:1026B000B0F5805F03D004E00120BDE8F883206915
:1026C00028B12E465FF0000584F83C800EE000261D
:1026D000FAE78021204600F030FBA0B9AEB116F831
:1026E000010B21684860E08C401EE084E08C4B4682
:1026F0004FF0000200970028EBD14FF04001204638
:1027000000F01BFB30B10320D7E735F8020BC0F314
:102710000800E6E7202084F83D000020CDE70220F5
:10272000CBE77047FEE700007FB500241448009413
:102730000194029411490394C0E9001484600125B6
:102740000461057680F820400E49C0E90A14C5618D
:10275000C46080F830404561FFF746F808B1FEF7E5
:10276000E5FE07200094CDE9015069460448FEF7D4
:10277000E1FE002801D0FEF7D9FE7FBD0020014018
:102780008C0000200100000F30B587B0142168468E
:10279000FDF7C3FE1D480024016841F0800101607F
:1027A000016801F080010591016841F004010160B8
:1027B000016801F004010591016841F00101016027
:1027C0000068134D00F0010005900022EE2128461C
:1027D000FFF77FFA0720CDE9000469460D4802940F
:1027E000FFF72EF9EE2000900120CDE901046946A3
:1027F00028460394FFF724F91020CDE90004694628
:1028000028460294FFF71CF907B030BD303802406B
:1028100000000240000802400C4810B50A4901605F
:102820004FF4E1314160002181600C22C160C0E9B8
:1028300004128161C161FFF7A9FE002803D0BDE841
:102840001040FEF773BE10BD00100140D400002000
:10285000FEE7FEE770477047FFF746BA7047000093
:102860000148FFF78BBD0000D4000020FEE7000008
:1028700030B50E490E4C0A46CB6812789BB154F81D
:1028800022308D68EB1A8B6003448B6044F8220081
:10289000521CD0B20870072803D90020087001200C
:1028A000C860D80830BD8B68EEE70000000000204B
:1028B0003400002010B592B030216846FDF72DFE9F
:1028C00014210CA8FDF729FE01200090019002249C
:1028D0008005CDE9064008200890F020CDE90904E4
:1028E00004200B906846FFF797FB08B172B6FEE72D
:1028F0000F20CDE90C0400200E904FF4A0500F9053
:102900004FF48050109003210CA8FFF787FA00289D
:1029100001D072B6FEE712B010BD000070B50A4DCE
:10292000002401212846FFF7CFF944EA8004022160
:102930002846FFF7C9F944EA4000C4B204212846FA
:10294000FFF7C2F9204370BD000802402DE9F047AF
:1029500004460D46D4E90016304600F0E3FD01467A
:10296000304600F04DFE60612769824639462846B0
:1029700001F06EF8514600F06DFF394600F0D2FDCF
:102980000546E0602946384601F062F820F0004034
:10299000A16800F05FFF00F099FD8046894630464F
:1029A00000F094FD07460E46504600F08FFD0022D1
:1029B000084B00F095FC3A46334600F093FB424644
:1029C0004B4600F0E7FA00F0B3FA25616060284654
:1029D000BDE8F0870000F03F10B50024C46004613A
:1029E000446180E80E0010BD4B4910B5D1F80423B6
:1029F00022F44032C1F80423D1F8042343681A4377
:102A0000C1F8042301684A6822F480724A600168B0
:102A10004A68036942EA03224A6001684A6822F070
:102A200040724A6001684A6883681A434A600168D4
:102A30008A6822F400628A6001688A68C3681A435F
:102A40008A60816A6FF07062D14201688A6822F000
:102A500070628A6001688A680CD0836A1A438A604F
:102A600001688A6822F040528A6001688A68C36AF5
:102A70001A4301E022F040528A6001688A6822F01D
:102A800002028A6001688A68037E42EA43028A6021
:102A900090F82010002901684A6815D042F40062BD
:102AA0004A6001684A6822F460424A6001684B68E3
:102AB0004FF46044426A94FAA4F4B4FA84F4521EC7
:102AC000A24013434B6002E022F400624A600168B6
:102AD000CA6A22F47002CA620168CA6A838B0F4C08
:102AE00004EB03531A43CA6201688A6822F4007235
:102AF0008A6001688A6890F8303042EA43228A602E
:102B000001688A6822F480628A6001688A68406984
:102B100042EA8020886010BD002001400000F0FFE4
:102B20002DE9F041044600680169E26821F4405152
:102B3000114301612169A068E26908436169114399
:102B400022680843D16849F20C6399430143D1607C
:102B500020684169A26921F44071114341613749FC
:102B60002068884202D03649884202D1FFF70CFA29
:102B700001E0FFF7F1F90246E36964203221B3F581
:102B8000004F02EBC20303EB021362682BD09200EA
:102B9000B3FBF2F5B5FBF0F5B3FBF2F66FF01807F7
:102BA0007D4306EB8505B3FBF2F601EB0515B5FB9E
:102BB000F0F5B6FBF0F605F0F00505EB0615B3FBF6
:102BC000F2F6B3FBF2F2B2FBF0F27A4306EB8202CA
:102BD00001EB0211B1FBF0F000F00F002168284476
:102BE0008860BDE8F0815200B3FBF2F6B6FBF0F668
:102BF000B3FBF2F7B3FBF2F56FF0180C06FB0CF623
:102C000007EB860601EBC606B5FBF0F5B6FBF0F662
:102C10002D0106F0F80605EB4605B3FBF2F6B3FB13
:102C2000F2F2B2FBF0F202FB0CF206EB820201EBD5
:102C3000C201B1FBF0F000F00700CFE70010014047
:102C40000014014008B590F83E10222901D002205E
:102C500008BD82684FF480539A4201D1016921B1C5
:102C6000816A9A421BD04AB10AE00268816A5268BE
:102C7000C2F308020A80816A891C08E0026972B105
:102C80000268526802F07F020A70816A491C816200
:102C9000C18D491E0904090CC18503D019E00268E1
:102CA0005268F1E70168CA6822F02002CA60016830
:102CB000CA6822F48072CA6001684A6922F001027F
:102CC0004A61202180F83E10016B012903D0FFF7F3
:102CD000CDFC002008BD002101630168CA6822F014
:102CE0001002CA6001680A68D20602D50A684968FB
:102CF0000091818DFFF740FBEBE70168CA6822F481
:102D00009072CA6001684A6922F001024A61016B4F
:102D1000012904D10168CA6822F01002CA6020218A
:102D200080F83E1000210163704710B5806B0021D0
:102D3000C185C184FFF721FB10BD2DE9F041984604
:102D400017460E460446069D1DE0681C1BD02DB19B
:102D5000FEF7C4FFA0EB0800A84214D92068C168A0
:102D600021F4D071C1602068416921F00101416105
:102D7000202084F83D0084F83E00002084F83C00C8
:102D80000320BDE8F0812068006836EA000004D026
:102D90000020B842D9D00020F3E70120F9E7090765
:102DA000090E002804DB00F1E02080F800147047D1
:102DB00000F00F0000F1E02080F8141D704749007A
:102DC00050EAC12018BF04204A0D18BF40F001008E
:102DD00040F2FF72B2EB515F08BF40F002000128E1
:102DE00008BF052070470000024B034859070A46F8
:102DF000FFF7F2BD0AD7233C740000208CB0FEF729
:102E00007BFFFFF757FDFFF7BFFCFFF78DFCFFF7D8
:102E100003FD3248FEF74CFD0025314CFFF77EFDE7
:102E2000A070D8B101206070206900F0CBFC014691
:102E30002C48FFF78BFD00F0A5FCFFF719FD606142
:102E4000606900F0BFFCA16900F0D0FD03D26069A9
:102E500000F0B8FCA061A078E07031E06078012853
:102E60002DD1A06900F032FB0B4602461EA108A836
:102E7000FDF780FAE2781DA10AA8FDF77BFA184950
:102E800068461C31FDF7FAFA08A96846FDF739FBD8
:102E900017A16846FDF735FB0AA96846FDF731FB27
:102EA0000F496846091DFDF72CFB6846FDF70AFB34
:102EB00082B2642369461248FFF7DAFBA5616570A8
:102EC000206900F07FFC01460648FFF73FFD00F057
:102ED00059FCFFF7CDFC6061A0E700008C000020EA
:102EE000000000207400002025660000256400001A
:102EF0002C22706F736974696F6E223A00000000B3
:102F0000D400002010B500290AD00878002807D086
:102F100005487844FDF7F2FE002801D0002010BDDE
:102F20000248784410BD0000FA0C0000F20C0000CA
:102F300021F00042A2F16052B2F5801F01F000437F
:102F400028BFD2F17F6C0BD95FEA001C43EAC202B2
:102F500042EB507018BF704728BF20F00100704747
:102F6000B2F5801FBCBF184670474FEA410C1CF5F4
:102F7000001F02D2084600F034BD70B500F05CF9C5
:102F800000000089FFF7F6BF4FF00040A0F5800079
:102F90007047000010B591EA030F48BF83F000436B
:102FA00000F1B281841A71EB030C05D2121943EBC4
:102FB0000C03001B61EB0C01DFF824E14FEA115414
:102FC000A4EB135C1EEA430F18BF9EEA445F73D064
:102FD00023EA0E03DCF1200E21EA045143F48013AE
:102FE00032D322FA0CFE10EB0E0023FA0CFE41EB5A
:102FF0000E01CCF1200E03FA0EFE10EB0E0051F183
:103000000001B1F5801FCCF1200E32D201EB04514A
:1030100012FA0EF2BDE8104058BF7047401C38BF8E
:103020005FEA420218BF7047002814BF20F0010079
:1030300041F100014FEA410313F5001F38BF70470B
:10304000A1F1C04100F046B9012A43EB0302ACF103
:10305000200CDCF11F0E32BF4FF0000E23FA0CF3F0
:1030600010EB030041EB0451B4EB115FD0D0A1EBA6
:10307000045101F5801149085FEA300001EB045169
:103080000ED350F1000038BF12FA0EFE08D1BDE891
:103090001040C9E7401C38BF5FEA4202CAD1C3E70B
:1030A000BDE810404FEA410313F5001F38BF7047D9
:1030B000A1F1C04100F00EB99EEA445F08D011EAC8
:1030C0005E0FBDE8104004BF01F0004100207047D2
:1030D000BDE8104070B500F0AFF800BF64FBBE3E25
:1030E0000000E0FFDFF848C170B51CEA111E1EBFEA
:1030F0001CEA13159EEA0C0F95EA0C0F00F06F8086
:1031000081EA030423EA4C134EEAD47E21EA4C11EF
:1031100041F4801143F48013AE44A1FB024CA0FBA8
:103120000365AEF17F7E361955EB0C05A1FB034C10
:103130004CF10003A0FB021C16EB0C06654153F199
:103140000003094218BF46F0010613F4007F0BD1BB
:103150004FEA03314FEA0530340341EA155140EAA2
:1031600016506FF003020AE04FEAC3214FEAC52070
:10317000F40241EA555140EA56506FF0020202EB68
:103180002E4201EB025585EACE710AD05FEA440C6B
:1031900018BF24F0004450F1000041F1000120EA82
:1031A000D47040F2FE7C624500D270BDA84214BFCC
:1031B0004FF080444FF04044002E08BF0024BEF181
:1031C000806FA8BFA1F1C041BDE8704080F282804D
:1031D0004FF0000001F1C04101F0004170479EEA4C
:1031E0000C0F0CEA131518BF95EA0C0F06D04FF020
:1031F000000081EA030E0EF0004170BD00F01CF8E3
:103200008900013E00F007B800F009B84FEA430C0E
:103210005FEA5C5C08D081EA030100F05BB84FEA2A
:10322000410C5FEA5C5CF6D14FF000000149704749
:103230000000FF070000F87F0EF1020E2EF0030ED3
:103240005EF8046B364205D4012A43EB030515F5FD
:10325000001F12D8012841EB010C1CF5001F0CD8EF
:103260000ED14FEAD17C15F5001F0CEB4C0C0CF184
:10327000020C08BF4CEBD37C04E04FF0080C01E0DB
:103280004FEAD37C0CEB4C0526FA05F606F0070650
:10329000B6F1040C06D20EEB860CBDE870404CF083
:1032A000010C6047DFE80CF0090B02024FF000410F
:1032B0004FF00000A1F5002170BD1946104601280D
:1032C00051EB010418BFD4F5001484BF002001F0B5
:1032D000004170BD0808A0F500114FEA31017047A8
:1032E00091EA030F10B581F000413FF55BAE83F02A
:1032F000004300F009B8000010B591EA030F48BF81
:1033000083F000433FF54EAE841A71EB030C07D2F5
:1033100012198CF0004C43EB0C03001B61EB0C0109
:10332000DFF8A4E14FEA1154A4EB135C1EEA430F4B
:1033300018BF9EEA445F00F0B08023EA6E03524259
:1033400021EA0451C3EB6E0338BF5B1EDCF1200E93
:1033500025D322FA0CFE10EB0E0043FA0CFE41EBD3
:103360000E01CCF1200E03FA0EFE10EB0E0051F10F
:103370000001CCF1200E29D412FA0EF201EB045117
:10338000BDE8104058BF7047401C1CBFB2F1004F51
:10339000704700280CBF491C20F00100704712EB59
:1033A000020E43EB030218BF4FF0010E4EEA420239
:1033B000ACF1200CDCF11E0E54D943FA0CFE10EBDC
:1033C0000E0051F1FF31CCF11E0ED5D50EF1010EDC
:1033D00012FA0EFE404141EB010101EB445C5FEA51
:1033E0005C5C10D910EBDE7001EB045138BFBEF10C
:1033F000004FBDE8104018BF704700280CBF491CA3
:1034000020F00100704730D24FEAD42C11F50011A2
:1034100024F400641BD0B1FA81F20B3AA41AA41E62
:10342000D2F12003914030FA03F31943904001EBAD
:10343000CC71002C01EB0451BDE81040A8BF7047CF
:1034400001F1C0414FF0000001F000417047B0FAB7
:1034500080F310FA03F100D110BDE41A173C4805BF
:10346000C90AE4E701EB045110BD491001EB045116
:10347000BDE810404FEA300002E04FF00001704715
:103480004A0008BF0042F8D0B2F5001F28BF7047BD
:1034900001F000414FF0000070479EEA445F07D002
:1034A00011EA5E0FBDE8104004BF00210020704704
:1034B000BDE8104070B5FFF7BFFE00BF40DFF63E2D
:1034C00083F00041104670470000E0FF43004FEAE0
:1034D000D30C4FEA3C0C43401FBF40070CF1605136
:1034E00013F0FE4F70471CF0006F03D100200CF06A
:1034F000004170470CF0004343EA507010B540EAB9
:10350000CC0000F028FA00BF000000924FEA000152
:10351000FFF7E0BE4FF000414FF00000A1F50021A1
:103520007047000090EA010F48BF81F0004100F1B0
:103530009682421A3CBF801A89184FEAD0524FF047
:103540007F4C1CEA410FA2EBD15318BF9CEA026FDB
:1035500000F03B804FF0004C4CEA00204CEA012187
:1035600021FA03FC10EB0C0C1ED202F1FF325FEAD1
:103570001C2040EBC25038BF70471CF07F0F4FEA51
:10358000400C18BFBCF17F4F38BF7047C3F1200318
:10359000994008BF20F00100BCF17F4F38BF704751
:1035A000A0F1C04000F01DBA4FEA3C00000A40EB19
:1035B000C25028BF1CF0FF0F4FEA400CE6D018BFE6
:1035C000BCF17F4F38BF7047EAE79CEA026F05D035
:1035D00010EA5C0F08BF00F00040704710B500F023
:1035E000BAF900BF64FBBE3E401058BFC0F1404076
:1035F000491058BFC1F140418142EFF3008070474C
:103600004FF47F0C1CEAD0121EBF1CEAD11392EAC1
:103610000C0F93EA0C0F00F0858090EA010F48BF71
:1036200042F4807240F4000C41F400002CF07F4121
:1036300020F07F4000B58142A2EB03020FF2081C8C
:10364000ACEB504EC0F100009EF800E04FEA4E0E89
:1036500000FB0EFC38BF49004FEA2C1C02F5FA02B1
:103660000CFB0EF34FEACE1E4FEA112C4FEAC1219C
:103670000EEB635E42EB22420EFB0CFC4FEA1C5346
:1036800000FB03114FEA112C4FEA01310EFB0CFC39
:103690004FEADC4C00FB0C11C14228BF09184CEB6F
:1036A00003335DF804EB10EB410143EBC250B2F57C
:1036B0007C0F38BF704729D512F0F00F1CBF00F106
:1036C000C04000F000407047008182838485868777
:1036D00088898B8C8D8E8F919293959697999A9CD1
:1036E0009D9FA0A2A3A5A7A8AAACAEB0B2B3B5B740
:1036F000B9BCBEC0C2C5C7C9CCCED1D4D7D9DCDF16
:10370000E2E6E9ECF0F3F7FAFE0000004FEA400CC5
:103710000CF1807CBCF17E4F28BF7047B0F1C040F7
:1037200000F05FB990EA010F0CEAD11348BF42F4F0
:103730008072624538BF634507D213F47F0F16D0FD
:1037400080EA010000F00040704710B500F003F976
:10375000097EFC3E00F005B880EA010000F0004060
:10376000704780EA010000F0004000F03AB912F41E
:103770007F0F04BF0248704780EA010000F031B9B2
:103780000000C07FC10DD1F19E0206DB4FEA00238D
:1037900043F0004323FA02F07047004207D54FEA96
:1037A0004001B1F1FE4F02D24FF00000704710B55A
:1037B00000F0D1F849922480002070476FEA200081
:1037C00070470000B0FA80F310FA03F2C3F19D03D2
:1037D0000AD0D90501EB1220530638BF704700F11B
:1037E000010008BF20F001007047000050EA010C02
:1037F00000F113801CF5000F58BFBCF5000F01D479
:103800008842704707D710F5000F58BF11F5000F19
:1038100015D488427047894270471CF5000F04D5C3
:10382000BCF5000FF7D5814270474FF0807C1CEB50
:10383000400F38BF1CEB410F01D28142704710B5D9
:1038400000F089F8922449004FF000504FF0805169
:10385000FFF7CABE4FF47F0C1CEAD0121EBF1CEA51
:10386000D11392EA0C0F93EA0C0F00F0478090EA14
:10387000010F48BF42F480724FF0004C4CEA002028
:103880004CEA012102EB0302A0FB0113A2F50002A6
:10389000002918BF43F001035B0028BF4FEA330340
:1038A00042EB22425FEA132C4CEBC2502EBFBCEB22
:1038B000436FB2F57C0F70474FEA036CBCF1004FC9
:1038C00008BF20F00100B2F57C0F38BF70470BD560
:1038D00082F0FF0212F5803FC8BF704700F1C04080
:1038E000D8BF00F00040704700F5000C5FEA4C0CB8
:1038F00048BF7047B0F1C04000F073B890EA010FC4
:103900000CEAD11348BF42F48072624538BF634568
:1039100004D280EA010000F00040704710B500F0CA
:103920001AF800BF8900013E00F007B800F009B89E
:103930005FEA410C5FEA1C6C08D080EA010000F0ED
:1039400050B85FEA400C5FEA1C6CF6D14FF00040C3
:10395000A0F5800070470EF1020E2EF0030E5EF807
:10396000044B244204D44FEA4102B2F17F4F11D8F4
:103970004FEA4003B3F17F4F0CD80ED14FEAD07C11
:10398000B2F17F4F0CEB4C0C0CF1020C08BF4CEB6E
:10399000D17C04E04FF0080C01E04FEAD17C0CEB45
:1039A0004C0324FA03F404F00704B4F1040C06D227
:1039B0000EEB840CBDE810404CF0010C6047DFE8D2
:1039C0000CF0070802024FF00040A0F5800010BD87
:1039D0000846420018BFD2F1807288BF00F0004054
:1039E00010BDFF2141EAD050C005704751EA000CDC
:1039F00000F113801CF5000F58BFBCF5000F01D477
:103A00008142704707D711F5000F58BF10F5000F1E
:103A100015D481427047894270471CF5000F04D5C8
:103A2000BCF5000FF7D5884270474FF0807C1CEB47
:103A3000410F38BF1CEB400F01D28842704780EA2B
:103A4000010081EA000180EA0100FFF7F8BE0000F2
:103A500090EA010F48BF81F000413FF56AAD421A7C
:103A600004D882F00042A0EB020011444FEAD05289
:103A70004FF07F4C1CEA410FA2EBD15318BF9CEAD8
:103A8000026F4AD04FF0004C4CEA00204CEA012172
:103A900021FA03FCB0EB0C0C0FD412F0FE0F36D061
:103AA0005FEA4C001DD5001240EBC25038BF704792
:103AB0001CF03F0F18BF70470BE0A2F101025FEA54
:103AC0001C2040EBC25038BF70471CF07F0F18BF5E
:103AD0007047C3F12003994014BF401E20F001003D
:103AE000704780084FEA122308BF7047B0FA80FC85
:103AF000A2EB0C02CCF1280C60FA0CF093EA122F26
:103B000004BF00EBC25070474FEAC3707047130AFE
:103B10005FEADC1008BF7047F6E79CEA026F04D04A
:103B200010EA5C0F08BF0020704710B5FFF713FFC5
:103B300040DFF63E81F000407047FCF75DBE0000BC
:103B4000000000000000010203040607080900004D
:103B5000000001020304000002400000000000A079
:103B60000000000005400000000000C80000000048
:103B70000C4000000000409C0000000019400000C4
:103B80000020BCBE0000000034400000BFC91B8EF6
:103B900000000004B5400000504BCFD06607E2CFD4
:103BA000010000006C4100003E8251AADFEEA73404
:103BB00001000000D9420000DCB5A0E23A301F97B6
:103BC000FFFFFFFFB4450000FD25A0C8E9A3C14FDA
:103BD000FFFFFFFFFF3F000000000080000000002B
:103BE000FF3F000000000080000000002C3C0008A7
:103BF0000000002034000000C0010008603C000804
:103C00003400002044070000DC0100081C00000014
:103C100043000000F8FFFFFF0C0000000E00000052
:103C20000F0000002E000000C1F1FFFF00000000A7
:103C30007D00000000000000000000000000000007
:103C400000000000000000007B226C7563223A0037
:103C50000100000010000000000000000024F4003B
:040000050800018569
:00000001FF
